{
  "_format": "hh-sol-artifact-1",
  "contractName": "MultiSigWallet",
  "sourceName": "contracts/MultiSigWallet.sol",
  "abi": [
    {
      "inputs": [
        {
          "internalType": "address[]",
          "name": "_admins",
          "type": "address[]"
        }
      ],
      "stateMutability": "nonpayable",
      "type": "constructor"
    },
    {
      "anonymous": false,
      "inputs": [
        {
          "indexed": true,
          "internalType": "uint256",
          "name": "id",
          "type": "uint256"
        },
        {
          "indexed": true,
          "internalType": "address",
          "name": "admin",
          "type": "address"
        }
      ],
      "name": "Approved",
      "type": "event"
    },
    {
      "anonymous": false,
      "inputs": [
        {
          "indexed": true,
          "internalType": "address",
          "name": "sender",
          "type": "address"
        },
        {
          "indexed": false,
          "internalType": "uint256",
          "name": "amount",
          "type": "uint256"
        }
      ],
      "name": "Deposit",
      "type": "event"
    },
    {
      "anonymous": false,
      "inputs": [
        {
          "indexed": true,
          "internalType": "uint256",
          "name": "id",
          "type": "uint256"
        }
      ],
      "name": "Executed",
      "type": "event"
    },
    {
      "anonymous": false,
      "inputs": [
        {
          "indexed": true,
          "internalType": "uint256",
          "name": "id",
          "type": "uint256"
        },
        {
          "indexed": true,
          "internalType": "address",
          "name": "requester",
          "type": "address"
        },
        {
          "indexed": false,
          "internalType": "address",
          "name": "to",
          "type": "address"
        },
        {
          "indexed": false,
          "internalType": "uint256",
          "name": "amount",
          "type": "uint256"
        }
      ],
      "name": "WithdrawalRequested",
      "type": "event"
    },
    {
      "inputs": [],
      "name": "REQUIRED_APPROVALS",
      "outputs": [
        {
          "internalType": "uint256",
          "name": "",
          "type": "uint256"
        }
      ],
      "stateMutability": "view",
      "type": "function"
    },
    {
      "inputs": [
        {
          "internalType": "uint256",
          "name": "",
          "type": "uint256"
        }
      ],
      "name": "admins",
      "outputs": [
        {
          "internalType": "address",
          "name": "",
          "type": "address"
        }
      ],
      "stateMutability": "view",
      "type": "function"
    },
    {
      "inputs": [
        {
          "internalType": "uint256",
          "name": "id",
          "type": "uint256"
        }
      ],
      "name": "approve",
      "outputs": [],
      "stateMutability": "nonpayable",
      "type": "function"
    },
    {
      "inputs": [
        {
          "internalType": "uint256",
          "name": "",
          "type": "uint256"
        },
        {
          "internalType": "address",
          "name": "",
          "type": "address"
        }
      ],
      "name": "approvedBy",
      "outputs": [
        {
          "internalType": "bool",
          "name": "",
          "type": "bool"
        }
      ],
      "stateMutability": "view",
      "type": "function"
    },
    {
      "inputs": [
        {
          "internalType": "uint256",
          "name": "id",
          "type": "uint256"
        }
      ],
      "name": "execute",
      "outputs": [],
      "stateMutability": "nonpayable",
      "type": "function"
    },
    {
      "inputs": [],
      "name": "getRequestsCount",
      "outputs": [
        {
          "internalType": "uint256",
          "name": "",
          "type": "uint256"
        }
      ],
      "stateMutability": "view",
      "type": "function"
    },
    {
      "inputs": [
        {
          "internalType": "address",
          "name": "",
          "type": "address"
        }
      ],
      "name": "isAdmin",
      "outputs": [
        {
          "internalType": "bool",
          "name": "",
          "type": "bool"
        }
      ],
      "stateMutability": "view",
      "type": "function"
    },
    {
      "inputs": [
        {
          "internalType": "address",
          "name": "_to",
          "type": "address"
        },
        {
          "internalType": "uint256",
          "name": "_amount",
          "type": "uint256"
        }
      ],
      "name": "requestWithdrawal",
      "outputs": [
        {
          "internalType": "uint256",
          "name": "id",
          "type": "uint256"
        }
      ],
      "stateMutability": "nonpayable",
      "type": "function"
    },
    {
      "inputs": [
        {
          "internalType": "uint256",
          "name": "",
          "type": "uint256"
        }
      ],
      "name": "requests",
      "outputs": [
        {
          "internalType": "address",
          "name": "requester",
          "type": "address"
        },
        {
          "internalType": "address",
          "name": "to",
          "type": "address"
        },
        {
          "internalType": "uint256",
          "name": "amount",
          "type": "uint256"
        },
        {
          "internalType": "uint256",
          "name": "approvals",
          "type": "uint256"
        },
        {
          "internalType": "bool",
          "name": "executed",
          "type": "bool"
        }
      ],
      "stateMutability": "view",
      "type": "function"
    },
    {
      "stateMutability": "payable",
      "type": "receive"
    }
  ],
  "bytecode": "0x608060405234801561001057600080fd5b5060405161168c38038061168c833981810160405281019061003291906103c9565b600381511015610077576040517f08c379a000000000000000000000000000000000000000000000000000000000815260040161006e9061046f565b60405180910390fd5b60005b81518110156101f75760008282815181106100985761009761048f565b5b60200260200101519050600160008273ffffffffffffffffffffffffffffffffffffffff1673ffffffffffffffffffffffffffffffffffffffff16815260200190815260200160002060009054906101000a900460ff161561012f576040517f08c379a00000000000000000000000000000000000000000000000000000000081526004016101269061050a565b60405180910390fd5b60018060008373ffffffffffffffffffffffffffffffffffffffff1673ffffffffffffffffffffffffffffffffffffffff16815260200190815260200160002060006101000a81548160ff0219169083151502179055506000819080600181540180825580915050600190039060005260206000200160009091909190916101000a81548173ffffffffffffffffffffffffffffffffffffffff021916908373ffffffffffffffffffffffffffffffffffffffff16021790555050808060010191505061007a565b505061052a565b6000604051905090565b600080fd5b600080fd5b600080fd5b6000601f19601f8301169050919050565b7f4e487b7100000000000000000000000000000000000000000000000000000000600052604160045260246000fd5b61026082610217565b810181811067ffffffffffffffff8211171561027f5761027e610228565b5b80604052505050565b60006102926101fe565b905061029e8282610257565b919050565b600067ffffffffffffffff8211156102be576102bd610228565b5b602082029050602081019050919050565b600080fd5b600073ffffffffffffffffffffffffffffffffffffffff82169050919050565b60006102ff826102d4565b9050919050565b61030f816102f4565b811461031a57600080fd5b50565b60008151905061032c81610306565b92915050565b6000610345610340846102a3565b610288565b90508083825260208201905060208402830185811115610368576103676102cf565b5b835b81811015610391578061037d888261031d565b84526020840193505060208101905061036a565b5050509392505050565b600082601f8301126103b0576103af610212565b5b81516103c0848260208601610332565b91505092915050565b6000602082840312156103df576103de610208565b5b600082015167ffffffffffffffff8111156103fd576103fc61020d565b5b6104098482850161039b565b91505092915050565b600082825260208201905092915050565b7f4e656564206174206c6561737420332061646d696e7300000000000000000000600082015250565b6000610459601683610412565b915061046482610423565b602082019050919050565b600060208201905081810360008301526104888161044c565b9050919050565b7f4e487b7100000000000000000000000000000000000000000000000000000000600052603260045260246000fd5b7f4475706c69636174652061646d696e0000000000000000000000000000000000600082015250565b60006104f4600f83610412565b91506104ff826104be565b602082019050919050565b60006020820190508181036000830152610523816104e7565b9050919050565b611153806105396000396000f3fe60806040526004361061008a5760003560e01c806381d12c581161005957806381d12c58146101b457806385667f1c146101f5578063b759f95414610232578063da95ebf71461025b578063fe0d94c114610298576100df565b806314bfd6d0146100e457806324d7806c146101215780633410452a1461015e578063599c553314610189576100df565b366100df573373ffffffffffffffffffffffffffffffffffffffff167fe1fffcc4923d04b559f4d29a8bfc6cda04eb5b0d3c460751c2402c5c5cc9109c346040516100d59190610a98565b60405180910390a2005b600080fd5b3480156100f057600080fd5b5061010b60048036038101906101069190610ae4565b6102c1565b6040516101189190610b52565b60405180910390f35b34801561012d57600080fd5b5061014860048036038101906101439190610b99565b610300565b6040516101559190610be1565b60405180910390f35b34801561016a57600080fd5b50610173610320565b6040516101809190610a98565b60405180910390f35b34801561019557600080fd5b5061019e61032d565b6040516101ab9190610a98565b60405180910390f35b3480156101c057600080fd5b506101db60048036038101906101d69190610ae4565b610332565b6040516101ec959493929190610bfc565b60405180910390f35b34801561020157600080fd5b5061021c60048036038101906102179190610c4f565b6103c5565b6040516102299190610be1565b60405180910390f35b34801561023e57600080fd5b5061025960048036038101906102549190610ae4565b6103f4565b005b34801561026757600080fd5b50610282600480360381019061027d9190610c8f565b610661565b60405161028f9190610a98565b60405180910390f35b3480156102a457600080fd5b506102bf60048036038101906102ba9190610ae4565b610855565b005b600081815481106102d157600080fd5b906000526020600020016000915054906101000a900473ffffffffffffffffffffffffffffffffffffffff1681565b60016020528060005260406000206000915054906101000a900460ff1681565b6000600280549050905090565b600381565b6002818154811061034257600080fd5b90600052602060002090600502016000915090508060000160009054906101000a900473ffffffffffffffffffffffffffffffffffffffff16908060010160009054906101000a900473ffffffffffffffffffffffffffffffffffffffff16908060020154908060030154908060040160009054906101000a900460ff16905085565b60036020528160005260406000206020528060005260406000206000915091509054906101000a900460ff1681565b600160003373ffffffffffffffffffffffffffffffffffffffff1673ffffffffffffffffffffffffffffffffffffffff16815260200190815260200160002060009054906101000a900460ff16610480576040517f08c379a000000000000000000000000000000000000000000000000000000000815260040161047790610d2c565b60405180910390fd5b60006002828154811061049657610495610d4c565b5b906000526020600020906005020190508060040160009054906101000a900460ff16156104f8576040517f08c379a00000000000000000000000000000000000000000000000000000000081526004016104ef90610dc7565b60405180910390fd5b6003600083815260200190815260200160002060003373ffffffffffffffffffffffffffffffffffffffff1673ffffffffffffffffffffffffffffffffffffffff16815260200190815260200160002060009054906101000a900460ff1615610596576040517f08c379a000000000000000000000000000000000000000000000000000000000815260040161058d90610e33565b60405180910390fd5b60016003600084815260200190815260200160002060003373ffffffffffffffffffffffffffffffffffffffff1673ffffffffffffffffffffffffffffffffffffffff16815260200190815260200160002060006101000a81548160ff02191690831515021790555080600301600081548092919061061490610e82565b91905055503373ffffffffffffffffffffffffffffffffffffffff16827f7b39c92a7e1a86e846edaeff6eba715a046352c596794c2a374269c126a9976860405160405180910390a35050565b60008082116106a5576040517f08c379a000000000000000000000000000000000000000000000000000000000815260040161069c90610f16565b60405180910390fd5b60026040518060a001604052803373ffffffffffffffffffffffffffffffffffffffff1681526020018573ffffffffffffffffffffffffffffffffffffffff1681526020018481526020016000815260200160001515815250908060018154018082558091505060019003906000526020600020906005020160009091909190915060008201518160000160006101000a81548173ffffffffffffffffffffffffffffffffffffffff021916908373ffffffffffffffffffffffffffffffffffffffff16021790555060208201518160010160006101000a81548173ffffffffffffffffffffffffffffffffffffffff021916908373ffffffffffffffffffffffffffffffffffffffff160217905550604082015181600201556060820151816003015560808201518160040160006101000a81548160ff021916908315150217905550505060016002805490506107fd9190610f36565b90503373ffffffffffffffffffffffffffffffffffffffff16817eae2c76ca218353c7995e13a4af773a35837cb6ebb8288092d8190bcd9c8f688585604051610847929190610f6a565b60405180910390a392915050565b60006002828154811061086b5761086a610d4c565b5b906000526020600020906005020190508060040160009054906101000a900460ff16156108cd576040517f08c379a00000000000000000000000000000000000000000000000000000000081526004016108c490610dc7565b60405180910390fd5b600381600301541015610915576040517f08c379a000000000000000000000000000000000000000000000000000000000815260040161090c90610fdf565b60405180910390fd5b806002015447101561095c576040517f08c379a00000000000000000000000000000000000000000000000000000000081526004016109539061104b565b60405180910390fd5b60018160040160006101000a81548160ff02191690831515021790555060008160010160009054906101000a900473ffffffffffffffffffffffffffffffffffffffff1673ffffffffffffffffffffffffffffffffffffffff1682600201546040516109c79061109c565b60006040518083038185875af1925050503d8060008114610a04576040519150601f19603f3d011682016040523d82523d6000602084013e610a09565b606091505b5050905080610a4d576040517f08c379a0000000000000000000000000000000000000000000000000000000008152600401610a44906110fd565b60405180910390fd5b827fbcf6a68a2f901be4a23a41b53acd7697893a7e34def4e28acba584da75283b6760405160405180910390a2505050565b6000819050919050565b610a9281610a7f565b82525050565b6000602082019050610aad6000830184610a89565b92915050565b600080fd5b610ac181610a7f565b8114610acc57600080fd5b50565b600081359050610ade81610ab8565b92915050565b600060208284031215610afa57610af9610ab3565b5b6000610b0884828501610acf565b91505092915050565b600073ffffffffffffffffffffffffffffffffffffffff82169050919050565b6000610b3c82610b11565b9050919050565b610b4c81610b31565b82525050565b6000602082019050610b676000830184610b43565b92915050565b610b7681610b31565b8114610b8157600080fd5b50565b600081359050610b9381610b6d565b92915050565b600060208284031215610baf57610bae610ab3565b5b6000610bbd84828501610b84565b91505092915050565b60008115159050919050565b610bdb81610bc6565b82525050565b6000602082019050610bf66000830184610bd2565b92915050565b600060a082019050610c116000830188610b43565b610c1e6020830187610b43565b610c2b6040830186610a89565b610c386060830185610a89565b610c456080830184610bd2565b9695505050505050565b60008060408385031215610c6657610c65610ab3565b5b6000610c7485828601610acf565b9250506020610c8585828601610b84565b9150509250929050565b60008060408385031215610ca657610ca5610ab3565b5b6000610cb485828601610b84565b9250506020610cc585828601610acf565b9150509250929050565b600082825260208201905092915050565b7f4e6f742061646d696e0000000000000000000000000000000000000000000000600082015250565b6000610d16600983610ccf565b9150610d2182610ce0565b602082019050919050565b60006020820190508181036000830152610d4581610d09565b9050919050565b7f4e487b7100000000000000000000000000000000000000000000000000000000600052603260045260246000fd5b7f416c726561647920657865637574656400000000000000000000000000000000600082015250565b6000610db1601083610ccf565b9150610dbc82610d7b565b602082019050919050565b60006020820190508181036000830152610de081610da4565b9050919050565b7f416c726561647920617070726f76656400000000000000000000000000000000600082015250565b6000610e1d601083610ccf565b9150610e2882610de7565b602082019050919050565b60006020820190508181036000830152610e4c81610e10565b9050919050565b7f4e487b7100000000000000000000000000000000000000000000000000000000600052601160045260246000fd5b6000610e8d82610a7f565b91507fffffffffffffffffffffffffffffffffffffffffffffffffffffffffffffffff8203610ebf57610ebe610e53565b5b600182019050919050565b7f416d6f756e74206d757374206265203e20300000000000000000000000000000600082015250565b6000610f00601283610ccf565b9150610f0b82610eca565b602082019050919050565b60006020820190508181036000830152610f2f81610ef3565b9050919050565b6000610f4182610a7f565b9150610f4c83610a7f565b9250828203905081811115610f6457610f63610e53565b5b92915050565b6000604082019050610f7f6000830185610b43565b610f8c6020830184610a89565b9392505050565b7f4e6f7420656e6f75676820617070726f76616c73000000000000000000000000600082015250565b6000610fc9601483610ccf565b9150610fd482610f93565b602082019050919050565b60006020820190508181036000830152610ff881610fbc565b9050919050565b7f496e73756666696369656e742062616c616e6365000000000000000000000000600082015250565b6000611035601483610ccf565b915061104082610fff565b602082019050919050565b6000602082019050818103600083015261106481611028565b9050919050565b600081905092915050565b50565b600061108660008361106b565b915061109182611076565b600082019050919050565b60006110a782611079565b9150819050919050565b7f5472616e73666572206661696c65640000000000000000000000000000000000600082015250565b60006110e7600f83610ccf565b91506110f2826110b1565b602082019050919050565b60006020820190508181036000830152611116816110da565b905091905056fea26469706673582212205a72e7677255fa7748aa3ad8335a3d6f1722d9660e57255ca92da2da7644994164736f6c634300081c0033",
  "linkReferences": {},
  "deployedLinkReferences": {}
}